{
  "contractName": "CarRegister",
  "abi": [
    {
      "inputs": [
        {
          "internalType": "address",
          "name": "",
          "type": "address"
        }
      ],
      "name": "UIDs",
      "outputs": [
        {
          "internalType": "string",
          "name": "",
          "type": "string"
        }
      ],
      "stateMutability": "view",
      "type": "function"
    },
    {
      "inputs": [
        {
          "internalType": "uint256",
          "name": "",
          "type": "uint256"
        }
      ],
      "name": "accounts",
      "outputs": [
        {
          "internalType": "address",
          "name": "",
          "type": "address"
        }
      ],
      "stateMutability": "view",
      "type": "function"
    },
    {
      "inputs": [
        {
          "internalType": "string",
          "name": "UID",
          "type": "string"
        }
      ],
      "name": "addAccount",
      "outputs": [
        {
          "internalType": "bool",
          "name": "",
          "type": "bool"
        }
      ],
      "stateMutability": "nonpayable",
      "type": "function"
    },
    {
      "inputs": [],
      "name": "removeAccount",
      "outputs": [
        {
          "internalType": "bool",
          "name": "",
          "type": "bool"
        }
      ],
      "stateMutability": "nonpayable",
      "type": "function"
    },
    {
      "inputs": [
        {
          "internalType": "string",
          "name": "UID",
          "type": "string"
        }
      ],
      "name": "changeUID",
      "outputs": [
        {
          "internalType": "bool",
          "name": "",
          "type": "bool"
        }
      ],
      "stateMutability": "nonpayable",
      "type": "function"
    },
    {
      "inputs": [],
      "name": "getAccounts",
      "outputs": [
        {
          "internalType": "address[]",
          "name": "",
          "type": "address[]"
        }
      ],
      "stateMutability": "view",
      "type": "function"
    },
    {
      "inputs": [
        {
          "internalType": "string",
          "name": "UID",
          "type": "string"
        }
      ],
      "name": "getAccount",
      "outputs": [
        {
          "internalType": "address",
          "name": "",
          "type": "address"
        }
      ],
      "stateMutability": "view",
      "type": "function"
    }
  ],
  "bytecode": "0x608060405234801561001057600080fd5b50610f60806100206000396000f3fe608060405234801561001057600080fd5b506004361061007d5760003560e01c806375beca081161005b57806375beca08146101125780638a48ac03146101305780638bc609131461014e578063f2a40db81461017e5761007d565b80630b982206146100825780632ad26a04146100b25780634518f6b3146100e2575b600080fd5b61009c60048036038101906100979190610a04565b6101ae565b6040516100a99190610c61565b60405180910390f35b6100cc60048036038101906100c79190610a2d565b61024e565b6040516100d99190610c46565b60405180910390f35b6100fc60048036038101906100f79190610a2d565b6103d9565b6040516101099190610c09565b60405180910390f35b61011a61053e565b6040516101279190610c46565b60405180910390f35b6101386106da565b6040516101459190610c24565b60405180910390f35b61016860048036038101906101639190610a2d565b610768565b6040516101759190610c46565b60405180910390f35b61019860048036038101906101939190610a6e565b610890565b6040516101a59190610c09565b60405180910390f35b600060205280600052604060002060009150905080546101cd90610de3565b80601f01602080910402602001604051908101604052809291908181526020018280546101f990610de3565b80156102465780601f1061021b57610100808354040283529160200191610246565b820191906000526020600020905b81548152906001019060200180831161022957829003601f168201915b505050505081565b600080600090505b600180549050811015610318576001818154811061029d577f4e487b7100000000000000000000000000000000000000000000000000000000600052603260045260246000fd5b9060005260206000200160009054906101000a900473ffffffffffffffffffffffffffffffffffffffff1673ffffffffffffffffffffffffffffffffffffffff163373ffffffffffffffffffffffffffffffffffffffff1614156103055760009150506103d4565b808061031090610e15565b915050610256565b506001339080600181540180825580915050600190039060005260206000200160009091909190916101000a81548173ffffffffffffffffffffffffffffffffffffffff021916908373ffffffffffffffffffffffffffffffffffffffff160217905550816000803373ffffffffffffffffffffffffffffffffffffffff1673ffffffffffffffffffffffffffffffffffffffff16815260200190815260200160002090805190602001906103ce9291906108cf565b50600190505b919050565b600080600090505b60018054905081101561053357828051906020012060008060018481548110610433577f4e487b7100000000000000000000000000000000000000000000000000000000600052603260045260246000fd5b9060005260206000200160009054906101000a900473ffffffffffffffffffffffffffffffffffffffff1673ffffffffffffffffffffffffffffffffffffffff1673ffffffffffffffffffffffffffffffffffffffff1681526020019081526020016000206040516104a59190610bf2565b6040518091039020141561052057600181815481106104ed577f4e487b7100000000000000000000000000000000000000000000000000000000600052603260045260246000fd5b9060005260206000200160009054906101000a900473ffffffffffffffffffffffffffffffffffffffff16915050610539565b808061052b90610e15565b9150506103e1565b50600090505b919050565b600080600090505b6001805490508110156106d1576001818154811061058d577f4e487b7100000000000000000000000000000000000000000000000000000000600052603260045260246000fd5b9060005260206000200160009054906101000a900473ffffffffffffffffffffffffffffffffffffffff1673ffffffffffffffffffffffffffffffffffffffff163373ffffffffffffffffffffffffffffffffffffffff1614156106be5760018181548110610625577f4e487b7100000000000000000000000000000000000000000000000000000000600052603260045260246000fd5b9060005260206000200160006101000a81549073ffffffffffffffffffffffffffffffffffffffff0219169055604051806020016040528060008152506000803373ffffffffffffffffffffffffffffffffffffffff1673ffffffffffffffffffffffffffffffffffffffff16815260200190815260200160002090805190602001906106b39291906108cf565b5060019150506106d7565b80806106c990610e15565b915050610546565b50600090505b90565b6060600180548060200260200160405190810160405280929190818152602001828054801561075e57602002820191906000526020600020905b8160009054906101000a900473ffffffffffffffffffffffffffffffffffffffff1673ffffffffffffffffffffffffffffffffffffffff1681526020019060010190808311610714575b5050505050905090565b600080600090505b60018054905081101561088557600181815481106107b7577f4e487b7100000000000000000000000000000000000000000000000000000000600052603260045260246000fd5b9060005260206000200160009054906101000a900473ffffffffffffffffffffffffffffffffffffffff1673ffffffffffffffffffffffffffffffffffffffff163373ffffffffffffffffffffffffffffffffffffffff16141561087257826000803373ffffffffffffffffffffffffffffffffffffffff1673ffffffffffffffffffffffffffffffffffffffff16815260200190815260200160002090805190602001906108679291906108cf565b50600191505061088b565b808061087d90610e15565b915050610770565b50600090505b919050565b600181815481106108a057600080fd5b906000526020600020016000915054906101000a900473ffffffffffffffffffffffffffffffffffffffff1681565b8280546108db90610de3565b90600052602060002090601f0160209004810192826108fd5760008555610944565b82601f1061091657805160ff1916838001178555610944565b82800160010185558215610944579182015b82811115610943578251825591602001919060010190610928565b5b5090506109519190610955565b5090565b5b8082111561096e576000816000905550600101610956565b5090565b600061098561098084610cb4565b610c83565b90508281526020810184848401111561099d57600080fd5b6109a8848285610da1565b509392505050565b6000813590506109bf81610efc565b92915050565b600082601f8301126109d657600080fd5b81356109e6848260208601610972565b91505092915050565b6000813590506109fe81610f13565b92915050565b600060208284031215610a1657600080fd5b6000610a24848285016109b0565b91505092915050565b600060208284031215610a3f57600080fd5b600082013567ffffffffffffffff811115610a5957600080fd5b610a65848285016109c5565b91505092915050565b600060208284031215610a8057600080fd5b6000610a8e848285016109ef565b91505092915050565b6000610aa38383610aaf565b60208301905092915050565b610ab881610d59565b82525050565b610ac781610d59565b82525050565b6000610ad882610d09565b610ae28185610d2c565b9350610aed83610ce4565b8060005b83811015610b1e578151610b058882610a97565b9750610b1083610d1f565b925050600181019050610af1565b5085935050505092915050565b610b3481610d6b565b82525050565b60008154610b4781610de3565b610b518186610d3d565b94506001821660008114610b6c5760018114610b7d57610bb0565b60ff19831686528186019350610bb0565b610b8685610cf4565b60005b83811015610ba857815481890152600182019150602081019050610b89565b838801955050505b50505092915050565b6000610bc482610d14565b610bce8185610d48565b9350610bde818560208601610db0565b610be781610eeb565b840191505092915050565b6000610bfe8284610b3a565b915081905092915050565b6000602082019050610c1e6000830184610abe565b92915050565b60006020820190508181036000830152610c3e8184610acd565b905092915050565b6000602082019050610c5b6000830184610b2b565b92915050565b60006020820190508181036000830152610c7b8184610bb9565b905092915050565b6000604051905081810181811067ffffffffffffffff82111715610caa57610ca9610ebc565b5b8060405250919050565b600067ffffffffffffffff821115610ccf57610cce610ebc565b5b601f19601f8301169050602081019050919050565b6000819050602082019050919050565b60008190508160005260206000209050919050565b600081519050919050565b600081519050919050565b6000602082019050919050565b600082825260208201905092915050565b600081905092915050565b600082825260208201905092915050565b6000610d6482610d77565b9050919050565b60008115159050919050565b600073ffffffffffffffffffffffffffffffffffffffff82169050919050565b6000819050919050565b82818337600083830152505050565b60005b83811015610dce578082015181840152602081019050610db3565b83811115610ddd576000848401525b50505050565b60006002820490506001821680610dfb57607f821691505b60208210811415610e0f57610e0e610e8d565b5b50919050565b6000610e2082610d97565b91507fffffffffffffffffffffffffffffffffffffffffffffffffffffffffffffffff821415610e5357610e52610e5e565b5b600182019050919050565b7f4e487b7100000000000000000000000000000000000000000000000000000000600052601160045260246000fd5b7f4e487b7100000000000000000000000000000000000000000000000000000000600052602260045260246000fd5b7f4e487b7100000000000000000000000000000000000000000000000000000000600052604160045260246000fd5b6000601f19601f8301169050919050565b610f0581610d59565b8114610f1057600080fd5b50565b610f1c81610d97565b8114610f2757600080fd5b5056fea264697066735822122008b1d8190ed9f8f0de03599cfeab824070d5f2a1245f3920f9540662c14a7ec664736f6c63430008000033",
  "immutableReferences": {},
  "source": "/**\r\n *Submitted for verification at Etherscan.io on 2021-08-20\r\n*/\r\n\r\n// SPDX-License-Identifier: MIT\r\npragma solidity >=0.4.22 <0.9.0;\r\n\r\ncontract CarRegister {\r\n    mapping(address => string) public UIDs;\r\n    address[] public accounts;\r\n\r\n    function addAccount(string memory UID) public returns (bool){\r\n        for (uint i = 0; i < accounts.length; i++) {\r\n            if (msg.sender == accounts[i]) {\r\n                return false;\r\n            }\r\n        }\r\n        accounts.push(msg.sender);\r\n        UIDs[msg.sender] = UID;\r\n        return true;\r\n    }\r\n\r\n    function removeAccount() public returns (bool){\r\n        for (uint i = 0; i < accounts.length; i++) {\r\n            if (msg.sender == accounts[i]) {\r\n                delete accounts[i];\r\n                UIDs[msg.sender] = \"\";\r\n                return true;\r\n            }\r\n        }\r\n        return false;\r\n    }\r\n\r\n    function changeUID(string memory UID) public returns (bool){\r\n        for (uint i = 0; i < accounts.length; i++) {\r\n            if (msg.sender == accounts[i]) {\r\n                UIDs[msg.sender] = UID;\r\n                return true;\r\n            }\r\n        }\r\n        return false;\r\n    }\r\n\r\n    function getAccounts() public view returns (address[] memory){\r\n        return accounts;\r\n    }\r\n\r\n    function getAccount(string memory UID) public view returns (address){\r\n        for(uint i=0;i<accounts.length;i++){\r\n            if (keccak256(bytes(UIDs[accounts[i]])) == keccak256(bytes(UID))) return accounts[i];\r\n        }\r\n        return address(0);\r\n    }\r\n}",
  "sourcePath": "C:\\Users\\filip\\iot-blockchain\\iot-summer-school\\smart-contract\\contracts\\CarRegister.sol",
  "compiler": {
    "name": "solc",
    "version": "0.8.0+commit.c7dfd78e.Emscripten.clang"
  },
  "schemaVersion": "3.4.3",
  "updatedAt": "2021-09-28T12:21:17.464Z",
  "devdoc": {
    "kind": "dev",
    "methods": {},
    "version": 1
  },
  "userdoc": {
    "kind": "user",
    "methods": {},
    "version": 1
  }
}