{
  "contractName": "PowerPlant",
  "abi": [
    {
      "inputs": [
        {
          "internalType": "uint256",
          "name": "_accountingInterval",
          "type": "uint256"
        },
        {
          "internalType": "uint256",
          "name": "_cycleIntervals",
          "type": "uint256"
        },
        {
          "internalType": "uint256[]",
          "name": "_productionProfile",
          "type": "uint256[]"
        },
        {
          "internalType": "uint256",
          "name": "_priceMax",
          "type": "uint256"
        },
        {
          "internalType": "uint256",
          "name": "_priceMin",
          "type": "uint256"
        },
        {
          "internalType": "contract ERC20Accounting",
          "name": "_token",
          "type": "address"
        }
      ],
      "stateMutability": "nonpayable",
      "type": "constructor"
    },
    {
      "inputs": [],
      "name": "accountingInterval",
      "outputs": [
        {
          "internalType": "uint256",
          "name": "",
          "type": "uint256"
        }
      ],
      "stateMutability": "view",
      "type": "function"
    },
    {
      "inputs": [
        {
          "internalType": "uint256",
          "name": "",
          "type": "uint256"
        }
      ],
      "name": "consumptionTimestamps",
      "outputs": [
        {
          "internalType": "uint256",
          "name": "",
          "type": "uint256"
        }
      ],
      "stateMutability": "view",
      "type": "function"
    },
    {
      "inputs": [],
      "name": "cycleIntervals",
      "outputs": [
        {
          "internalType": "uint256",
          "name": "",
          "type": "uint256"
        }
      ],
      "stateMutability": "view",
      "type": "function"
    },
    {
      "inputs": [
        {
          "internalType": "address",
          "name": "",
          "type": "address"
        }
      ],
      "name": "orders",
      "outputs": [
        {
          "internalType": "uint256",
          "name": "cost",
          "type": "uint256"
        },
        {
          "internalType": "uint256",
          "name": "startAt",
          "type": "uint256"
        }
      ],
      "stateMutability": "view",
      "type": "function"
    },
    {
      "inputs": [],
      "name": "priceMax",
      "outputs": [
        {
          "internalType": "uint256",
          "name": "",
          "type": "uint256"
        }
      ],
      "stateMutability": "view",
      "type": "function"
    },
    {
      "inputs": [],
      "name": "priceMin",
      "outputs": [
        {
          "internalType": "uint256",
          "name": "",
          "type": "uint256"
        }
      ],
      "stateMutability": "view",
      "type": "function"
    },
    {
      "inputs": [
        {
          "internalType": "uint256",
          "name": "",
          "type": "uint256"
        }
      ],
      "name": "productionProfile",
      "outputs": [
        {
          "internalType": "uint256",
          "name": "",
          "type": "uint256"
        }
      ],
      "stateMutability": "view",
      "type": "function"
    },
    {
      "inputs": [],
      "name": "token",
      "outputs": [
        {
          "internalType": "contract ERC20Accounting",
          "name": "",
          "type": "address"
        }
      ],
      "stateMutability": "view",
      "type": "function"
    },
    {
      "inputs": [],
      "name": "getConsumptionTimestamps",
      "outputs": [
        {
          "internalType": "uint256[]",
          "name": "",
          "type": "uint256[]"
        }
      ],
      "stateMutability": "view",
      "type": "function"
    },
    {
      "inputs": [],
      "name": "getConsumption",
      "outputs": [
        {
          "internalType": "uint256",
          "name": "",
          "type": "uint256"
        }
      ],
      "stateMutability": "view",
      "type": "function"
    },
    {
      "inputs": [],
      "name": "getProduction",
      "outputs": [
        {
          "internalType": "uint256",
          "name": "",
          "type": "uint256"
        }
      ],
      "stateMutability": "view",
      "type": "function"
    },
    {
      "inputs": [],
      "name": "getPrice",
      "outputs": [
        {
          "internalType": "uint256",
          "name": "",
          "type": "uint256"
        }
      ],
      "stateMutability": "view",
      "type": "function"
    },
    {
      "inputs": [
        {
          "internalType": "address",
          "name": "user",
          "type": "address"
        },
        {
          "internalType": "uint256",
          "name": "margin",
          "type": "uint256"
        }
      ],
      "name": "consume",
      "outputs": [],
      "stateMutability": "nonpayable",
      "type": "function"
    },
    {
      "inputs": [
        {
          "internalType": "address",
          "name": "user",
          "type": "address"
        }
      ],
      "name": "placeOrder",
      "outputs": [],
      "stateMutability": "nonpayable",
      "type": "function"
    },
    {
      "inputs": [
        {
          "internalType": "address",
          "name": "user",
          "type": "address"
        }
      ],
      "name": "getOrder",
      "outputs": [
        {
          "components": [
            {
              "internalType": "uint256",
              "name": "cost",
              "type": "uint256"
            },
            {
              "internalType": "uint256",
              "name": "startAt",
              "type": "uint256"
            }
          ],
          "internalType": "struct Accounting.Order",
          "name": "",
          "type": "tuple"
        }
      ],
      "stateMutability": "view",
      "type": "function"
    }
  ],
  "bytecode": "0x60806040523480156200001157600080fd5b506040516200144d3803806200144d8339818101604052810190620000379190620001fa565b856000819055508460018190555083600290805190602001906200005d929190620000b9565b50826003819055508160048190555080600660006101000a81548173ffffffffffffffffffffffffffffffffffffffff021916908373ffffffffffffffffffffffffffffffffffffffff160217905550505050505050620003c1565b828054828255906000526020600020908101928215620000f8579160200282015b82811115620000f7578251825591602001919060010190620000da565b5b5090506200010791906200010b565b5090565b5b80821115620001265760008160009055506001016200010c565b5090565b6000620001416200013b84620002dd565b620002a9565b905080838252602082019050828560208602820111156200016157600080fd5b60005b858110156200019557816200017a8882620001e3565b84526020840193506020830192505060018101905062000164565b5050509392505050565b600082601f830112620001b157600080fd5b8151620001c38482602086016200012a565b91505092915050565b600081519050620001dd816200038d565b92915050565b600081519050620001f481620003a7565b92915050565b60008060008060008060c087890312156200021457600080fd5b60006200022489828a01620001e3565b96505060206200023789828a01620001e3565b955050604087015167ffffffffffffffff8111156200025557600080fd5b6200026389828a016200019f565b94505060606200027689828a01620001e3565b93505060806200028989828a01620001e3565b92505060a06200029c89828a01620001cc565b9150509295509295509295565b6000604051905081810181811067ffffffffffffffff82111715620002d357620002d26200035e565b5b8060405250919050565b600067ffffffffffffffff821115620002fb57620002fa6200035e565b5b602082029050602081019050919050565b6000620003198262000334565b9050919050565b60006200032d826200030c565b9050919050565b600073ffffffffffffffffffffffffffffffffffffffff82169050919050565b6000819050919050565b7f4e487b7100000000000000000000000000000000000000000000000000000000600052604160045260246000fd5b620003988162000320565b8114620003a457600080fd5b50565b620003b28162000354565b8114620003be57600080fd5b50565b61107c80620003d16000396000f3fe608060405234801561001057600080fd5b50600436106100f55760003560e01c8063a454c32611610097578063e641228911610066578063e641228914610276578063f40e847114610294578063fada99db146102c5578063fc0c546a146102e3576100f5565b8063a454c326146101ee578063a5f8a3391461020c578063b10c784a1461022a578063bc367b0014610246576100f5565b806373c29737116100d357806373c29737146101645780638a5cb1b6146101945780638e4dfebb146101b257806398d5fdca146101d0576100f5565b8063224b5c72146100fa578063408a616a146101165780636eba2b1314610134575b600080fd5b610114600480360381019061010f9190610a6a565b610301565b005b61011e61066e565b60405161012b9190610ca2565b60405180910390f35b61014e60048036038101906101499190610a41565b6106c6565b60405161015b9190610cff565b60405180910390f35b61017e60048036038101906101799190610acf565b610733565b60405161018b9190610d1a565b60405180910390f35b61019c610757565b6040516101a99190610d1a565b60405180910390f35b6101ba6107e4565b6040516101c79190610d1a565b60405180910390f35b6101d861085b565b6040516101e59190610d1a565b60405180910390f35b6101f66108d8565b6040516102039190610d1a565b60405180910390f35b6102146108de565b6040516102219190610d1a565b60405180910390f35b610244600480360381019061023f9190610a41565b6108e4565b005b610260600480360381019061025b9190610acf565b610959565b60405161026d9190610d1a565b60405180910390f35b61027e61097d565b60405161028b9190610d1a565b60405180910390f35b6102ae60048036038101906102a99190610a41565b610983565b6040516102bc929190610d35565b60405180910390f35b6102cd6109a7565b6040516102da9190610d1a565b60405180910390f35b6102eb6109ad565b6040516102f89190610cc4565b60405180910390f35b6000600760008473ffffffffffffffffffffffffffffffffffffffff1673ffffffffffffffffffffffffffffffffffffffff16815260200190815260200160002060000154905081816103549190610da8565b90506000600660009054906101000a900473ffffffffffffffffffffffffffffffffffffffff1673ffffffffffffffffffffffffffffffffffffffff1663dd62ed3e85306040518363ffffffff1660e01b81526004016103b5929190610c42565b60206040518083038186803b1580156103cd57600080fd5b505afa1580156103e1573d6000803e3d6000fd5b505050506040513d601f19601f820116820180604052508101906104059190610af8565b90508181101561044a576040517f08c379a000000000000000000000000000000000000000000000000000000000815260040161044190610cdf565b60405180910390fd5b600660009054906101000a900473ffffffffffffffffffffffffffffffffffffffff1673ffffffffffffffffffffffffffffffffffffffff166323b872dd8530600760008973ffffffffffffffffffffffffffffffffffffffff1673ffffffffffffffffffffffffffffffffffffffff168152602001908152602001600020600001546040518463ffffffff1660e01b81526004016104eb93929190610c6b565b602060405180830381600087803b15801561050557600080fd5b505af1158015610519573d6000803e3d6000fd5b505050506040513d601f19601f8201168201806040525081019061053d9190610aa6565b50600660009054906101000a900473ffffffffffffffffffffffffffffffffffffffff1673ffffffffffffffffffffffffffffffffffffffff166323b872dd8533866040518463ffffffff1660e01b815260040161059d93929190610c6b565b602060405180830381600087803b1580156105b757600080fd5b505af11580156105cb573d6000803e3d6000fd5b505050506040513d601f19601f820116820180604052508101906105ef9190610aa6565b506005600054600760008773ffffffffffffffffffffffffffffffffffffffff1673ffffffffffffffffffffffffffffffffffffffff168152602001908152602001600020600101546106429190610da8565b908060018154018082558091505060019003906000526020600020016000909190919091505550505050565b606060058054806020026020016040519081016040528092919081815260200182805480156106bc57602002820191906000526020600020905b8154815260200190600101908083116106a8575b5050505050905090565b6106ce6109d3565b600760008373ffffffffffffffffffffffffffffffffffffffff1673ffffffffffffffffffffffffffffffffffffffff168152602001908152602001600020604051806040016040529081600082015481526020016001820154815250509050919050565b6005818154811061074357600080fd5b906000526020600020016000915090505481565b6000806000905060005b6005805490508110156107dc5742600582815481106107a9577f4e487b7100000000000000000000000000000000000000000000000000000000600052603260045260246000fd5b906000526020600020015411156107c95781806107c590610f29565b9250505b80806107d490610f29565b915050610761565b508091505090565b6000806000546001546107f79190610e2f565b426108029190610f72565b90506002603c826108139190610dfe565b8154811061084a577f4e487b7100000000000000000000000000000000000000000000000000000000600052603260045260246000fd5b906000526020600020015491505090565b600080610866610757565b905060006108726107e4565b905080821115610880578091505b6000828261088e9190610e89565b90506003548111156108a05760035490505b6004548110156108b05760045490505b60006001826003546108c29190610e89565b6108cc9190610da8565b90508094505050505090565b60005481565b60045481565b60405180604001604052806108f761085b565b815260200142815250600760008373ffffffffffffffffffffffffffffffffffffffff1673ffffffffffffffffffffffffffffffffffffffff168152602001908152602001600020600082015181600001556020820151816001015590505050565b6002818154811061096957600080fd5b906000526020600020016000915090505481565b60035481565b60076020528060005260406000206000915090508060000154908060010154905082565b60015481565b600660009054906101000a900473ffffffffffffffffffffffffffffffffffffffff1681565b604051806040016040528060008152602001600081525090565b6000813590506109fc81611001565b92915050565b600081519050610a1181611018565b92915050565b600081359050610a268161102f565b92915050565b600081519050610a3b8161102f565b92915050565b600060208284031215610a5357600080fd5b6000610a61848285016109ed565b91505092915050565b60008060408385031215610a7d57600080fd5b6000610a8b858286016109ed565b9250506020610a9c85828601610a17565b9150509250929050565b600060208284031215610ab857600080fd5b6000610ac684828501610a02565b91505092915050565b600060208284031215610ae157600080fd5b6000610aef84828501610a17565b91505092915050565b600060208284031215610b0a57600080fd5b6000610b1884828501610a2c565b91505092915050565b6000610b2d8383610c24565b60208301905092915050565b610b4281610ebd565b82525050565b6000610b5382610d6e565b610b5d8185610d86565b9350610b6883610d5e565b8060005b83811015610b99578151610b808882610b21565b9750610b8b83610d79565b925050600181019050610b6c565b5085935050505092915050565b610baf81610f05565b82525050565b6000610bc2601a83610d97565b91507f414c4c4f57454420414d4f554e54204e4f54204d4154434845440000000000006000830152602082019050919050565b604082016000820151610c0b6000850182610c24565b506020820151610c1e6020850182610c24565b50505050565b610c2d81610efb565b82525050565b610c3c81610efb565b82525050565b6000604082019050610c576000830185610b39565b610c646020830184610b39565b9392505050565b6000606082019050610c806000830186610b39565b610c8d6020830185610b39565b610c9a6040830184610c33565b949350505050565b60006020820190508181036000830152610cbc8184610b48565b905092915050565b6000602082019050610cd96000830184610ba6565b92915050565b60006020820190508181036000830152610cf881610bb5565b9050919050565b6000604082019050610d146000830184610bf5565b92915050565b6000602082019050610d2f6000830184610c33565b92915050565b6000604082019050610d4a6000830185610c33565b610d576020830184610c33565b9392505050565b6000819050602082019050919050565b600081519050919050565b6000602082019050919050565b600082825260208201905092915050565b600082825260208201905092915050565b6000610db382610efb565b9150610dbe83610efb565b9250827fffffffffffffffffffffffffffffffffffffffffffffffffffffffffffffffff03821115610df357610df2610fa3565b5b828201905092915050565b6000610e0982610efb565b9150610e1483610efb565b925082610e2457610e23610fd2565b5b828204905092915050565b6000610e3a82610efb565b9150610e4583610efb565b9250817fffffffffffffffffffffffffffffffffffffffffffffffffffffffffffffffff0483118215151615610e7e57610e7d610fa3565b5b828202905092915050565b6000610e9482610efb565b9150610e9f83610efb565b925082821015610eb257610eb1610fa3565b5b828203905092915050565b6000610ec882610edb565b9050919050565b60008115159050919050565b600073ffffffffffffffffffffffffffffffffffffffff82169050919050565b6000819050919050565b6000610f1082610f17565b9050919050565b6000610f2282610edb565b9050919050565b6000610f3482610efb565b91507fffffffffffffffffffffffffffffffffffffffffffffffffffffffffffffffff821415610f6757610f66610fa3565b5b600182019050919050565b6000610f7d82610efb565b9150610f8883610efb565b925082610f9857610f97610fd2565b5b828206905092915050565b7f4e487b7100000000000000000000000000000000000000000000000000000000600052601160045260246000fd5b7f4e487b7100000000000000000000000000000000000000000000000000000000600052601260045260246000fd5b61100a81610ebd565b811461101557600080fd5b50565b61102181610ecf565b811461102c57600080fd5b50565b61103881610efb565b811461104357600080fd5b5056fea264697066735822122074b53a8a7efa5a2eed8685e0d015b33c0fbc09d9eeb2511c16e5c4ff32c8e6c264736f6c63430008000033",
  "immutableReferences": {},
  "source": "// SPDX-License-Identifier: MIT\r\npragma solidity >=0.4.22 <0.9.0;\r\n\r\nimport \"./ERC20Accounting.sol\";\r\nimport \"./Libraries.sol\";\r\n\r\ncontract PowerPlant {\r\n    //time settings in seconds\r\n    uint public accountingInterval;\r\n    //number of intervals in one cycle\r\n    uint public cycleIntervals;\r\n\r\n    //production settings\r\n    uint[] public productionProfile;\r\n\r\n    //price variables\r\n    uint public priceMax;\r\n    uint public priceMin;\r\n\r\n    //current consumption\r\n    uint[] public consumptionTimestamps;\r\n\r\n    ERC20Accounting public token;\r\n\r\n    //Order structure of charging by the user\r\n    struct Order{\r\n        uint cost;\r\n        uint startAt;\r\n    }\r\n\r\n    mapping(address => Accounting.Order) public orders;\r\n\r\n    constructor(uint _accountingInterval, uint _cycleIntervals, uint[] memory _productionProfile, uint _priceMax, uint _priceMin, ERC20Accounting _token) {\r\n        accountingInterval = _accountingInterval;\r\n        cycleIntervals = _cycleIntervals;\r\n        productionProfile = _productionProfile;\r\n        priceMax = _priceMax;\r\n        priceMin = _priceMin;\r\n        token = _token;\r\n    }\r\n\r\n    //Return consumptionTimestamps\r\n    function getConsumptionTimestamps() public view returns (uint[] memory){\r\n        return consumptionTimestamps;\r\n    }\r\n\r\n    //Calculate current consumption\r\n    function getConsumption() public view returns (uint){\r\n        uint consumption = 0;\r\n        for (uint i = 0; i < consumptionTimestamps.length; i++) {\r\n            if (consumptionTimestamps[i] > block.timestamp) {\r\n                consumption++;\r\n            }\r\n        }\r\n        return consumption;\r\n    }\r\n\r\n    //Calculate current production\r\n    function getProduction() public view returns (uint){\r\n        uint k = block.timestamp % (cycleIntervals* accountingInterval);\r\n        return productionProfile[k/60];\r\n    }\r\n\r\n    //Calculate price\r\n    function getPrice() public view returns (uint){\r\n        uint c = getConsumption();\r\n        uint p = getProduction();\r\n        if (c > p) c = p;\r\n        uint d = p - c;\r\n        if (d > priceMax) d = priceMax;\r\n        if (d < priceMin) d = priceMin;\r\n        uint price = priceMax - d + 1;\r\n        return price;\r\n    }\r\n\r\n    //Activate consumption for one interval. Write end of consumption\r\n    function consume(address user, uint margin) public {\r\n        //Revert if not allowed to transfer\r\n        uint amount=orders[user].cost;\r\n        amount+=margin;\r\n        uint allowance=token.allowance(user,address(this));\r\n        require(allowance >= amount, \"ALLOWED AMOUNT NOT MATCHED\");\r\n        //Transfer tokens to power plant\r\n        token.transferFrom(user,address(this),orders[user].cost);\r\n        //Transfer tokens to pump\r\n        token.transferFrom(user,msg.sender,margin);\r\n        consumptionTimestamps.push(orders[user].startAt+accountingInterval);\r\n    }\r\n\r\n    function placeOrder(address user) public{\r\n        //Place order\r\n        orders[user]=Accounting.Order(getPrice(), block.timestamp);\r\n    }\r\n\r\n    function getOrder(address user) public view returns (Accounting.Order memory){\r\n        return orders[user];\r\n    }\r\n}",
  "sourcePath": "C:\\Users\\filip\\iot-blockchain\\iot-summer-school\\smart-contract\\contracts\\PowerPlant.sol",
  "compiler": {
    "name": "solc",
    "version": "0.8.0+commit.c7dfd78e.Emscripten.clang"
  },
  "schemaVersion": "3.4.3",
  "updatedAt": "2021-09-28T12:21:17.579Z",
  "devdoc": {
    "kind": "dev",
    "methods": {},
    "version": 1
  },
  "userdoc": {
    "kind": "user",
    "methods": {},
    "version": 1
  }
}