{
  "contractName": "Pump",
  "abi": [
    {
      "inputs": [
        {
          "internalType": "contract PowerPlant",
          "name": "_powerPlant",
          "type": "address"
        },
        {
          "internalType": "contract CarRegister",
          "name": "_carRegister",
          "type": "address"
        },
        {
          "internalType": "contract ERC20Accounting",
          "name": "_token",
          "type": "address"
        },
        {
          "internalType": "uint256",
          "name": "_interval",
          "type": "uint256"
        }
      ],
      "stateMutability": "nonpayable",
      "type": "constructor"
    },
    {
      "inputs": [],
      "name": "carRegister",
      "outputs": [
        {
          "internalType": "contract CarRegister",
          "name": "",
          "type": "address"
        }
      ],
      "stateMutability": "view",
      "type": "function",
      "constant": true
    },
    {
      "inputs": [],
      "name": "chargingEnd",
      "outputs": [
        {
          "internalType": "uint256",
          "name": "",
          "type": "uint256"
        }
      ],
      "stateMutability": "view",
      "type": "function",
      "constant": true
    },
    {
      "inputs": [],
      "name": "currentUID",
      "outputs": [
        {
          "internalType": "string",
          "name": "",
          "type": "string"
        }
      ],
      "stateMutability": "view",
      "type": "function",
      "constant": true
    },
    {
      "inputs": [],
      "name": "interval",
      "outputs": [
        {
          "internalType": "uint256",
          "name": "",
          "type": "uint256"
        }
      ],
      "stateMutability": "view",
      "type": "function",
      "constant": true
    },
    {
      "inputs": [],
      "name": "margin",
      "outputs": [
        {
          "internalType": "uint256",
          "name": "",
          "type": "uint256"
        }
      ],
      "stateMutability": "view",
      "type": "function",
      "constant": true
    },
    {
      "inputs": [
        {
          "internalType": "address",
          "name": "",
          "type": "address"
        }
      ],
      "name": "margins",
      "outputs": [
        {
          "internalType": "uint256",
          "name": "",
          "type": "uint256"
        }
      ],
      "stateMutability": "view",
      "type": "function",
      "constant": true
    },
    {
      "inputs": [],
      "name": "owner",
      "outputs": [
        {
          "internalType": "address",
          "name": "",
          "type": "address"
        }
      ],
      "stateMutability": "view",
      "type": "function",
      "constant": true
    },
    {
      "inputs": [],
      "name": "powerPlant",
      "outputs": [
        {
          "internalType": "contract PowerPlant",
          "name": "",
          "type": "address"
        }
      ],
      "stateMutability": "view",
      "type": "function",
      "constant": true
    },
    {
      "inputs": [],
      "name": "token",
      "outputs": [
        {
          "internalType": "contract ERC20Accounting",
          "name": "",
          "type": "address"
        }
      ],
      "stateMutability": "view",
      "type": "function",
      "constant": true
    },
    {
      "inputs": [],
      "name": "getPrice",
      "outputs": [
        {
          "internalType": "uint256",
          "name": "",
          "type": "uint256"
        }
      ],
      "stateMutability": "view",
      "type": "function",
      "constant": true
    },
    {
      "inputs": [
        {
          "internalType": "string",
          "name": "UID",
          "type": "string"
        }
      ],
      "name": "getCarAddress",
      "outputs": [
        {
          "internalType": "address",
          "name": "",
          "type": "address"
        }
      ],
      "stateMutability": "view",
      "type": "function",
      "constant": true
    },
    {
      "inputs": [],
      "name": "placeOrder",
      "outputs": [
        {
          "internalType": "uint256",
          "name": "",
          "type": "uint256"
        }
      ],
      "stateMutability": "nonpayable",
      "type": "function"
    },
    {
      "inputs": [],
      "name": "beginCharging",
      "outputs": [],
      "stateMutability": "nonpayable",
      "type": "function"
    },
    {
      "inputs": [
        {
          "internalType": "string",
          "name": "_uid",
          "type": "string"
        }
      ],
      "name": "setCurrentUID",
      "outputs": [],
      "stateMutability": "nonpayable",
      "type": "function"
    },
    {
      "inputs": [],
      "name": "isOccupied",
      "outputs": [
        {
          "internalType": "bool",
          "name": "",
          "type": "bool"
        }
      ],
      "stateMutability": "view",
      "type": "function",
      "constant": true
    },
    {
      "inputs": [],
      "name": "getOrder",
      "outputs": [
        {
          "components": [
            {
              "internalType": "uint256",
              "name": "cost",
              "type": "uint256"
            },
            {
              "internalType": "uint256",
              "name": "startAt",
              "type": "uint256"
            }
          ],
          "internalType": "struct Accounting.Order",
          "name": "",
          "type": "tuple"
        }
      ],
      "stateMutability": "view",
      "type": "function",
      "constant": true
    }
  ],
  "bytecode": "0x608060405260016008553480156200001657600080fd5b50604051620014903803806200149083398181016040528101906200003c9190620001ac565b33600660006101000a81548173ffffffffffffffffffffffffffffffffffffffff021916908373ffffffffffffffffffffffffffffffffffffffff160217905550836000806101000a81548173ffffffffffffffffffffffffffffffffffffffff021916908373ffffffffffffffffffffffffffffffffffffffff16021790555082600160006101000a81548173ffffffffffffffffffffffffffffffffffffffff021916908373ffffffffffffffffffffffffffffffffffffffff16021790555081600260006101000a81548173ffffffffffffffffffffffffffffffffffffffff021916908373ffffffffffffffffffffffffffffffffffffffff1602179055508060038190555050505050620002fa565b600081519050620001618162000292565b92915050565b6000815190506200017881620002ac565b92915050565b6000815190506200018f81620002c6565b92915050565b600081519050620001a681620002e0565b92915050565b60008060008060808587031215620001c357600080fd5b6000620001d3878288016200017e565b9450506020620001e68782880162000150565b9350506040620001f98782880162000167565b92505060606200020c8782880162000195565b91505092959194509250565b6000620002258262000268565b9050919050565b6000620002398262000218565b9050919050565b60006200024d8262000218565b9050919050565b6000620002618262000218565b9050919050565b600073ffffffffffffffffffffffffffffffffffffffff82169050919050565b6000819050919050565b6200029d816200022c565b8114620002a957600080fd5b50565b620002b78162000240565b8114620002c357600080fd5b50565b620002d18162000254565b8114620002dd57600080fd5b50565b620002eb8162000288565b8114620002f757600080fd5b50565b611186806200030a6000396000f3fe608060405234801561001057600080fd5b50600436106101005760003560e01c80638f76691a11610097578063d36dedd211610066578063d36dedd21461027b578063f5c609e014610299578063fc0c546a146102b7578063fdf92fcd146102d557610100565b80638f76691a14610217578063947a36fb146102355780639804e8731461025357806398d5fdca1461025d57610100565b806363898a18116100d357806363898a181461018f57806375a9e7c4146101bf57806384fb2c94146101dd5780638da5cb5b146101f957610100565b806332461de314610105578063388204651461012357806348b4435714610153578063524f51c514610171575b600080fd5b61010d6102f3565b60405161011a9190610dd6565b60405180910390f35b61013d60048036038101906101389190610b0b565b610317565b60405161014a9190610e6e565b60405180910390f35b61015b61032f565b6040516101689190610d85565b60405180910390f35b610179610349565b6040516101869190610e6e565b60405180910390f35b6101a960048036038101906101a49190610b5d565b61034f565b6040516101b69190610d41565b60405180910390f35b6101c7610403565b6040516101d49190610da0565b60405180910390f35b6101f760048036038101906101f29190610b5d565b610429565b005b6102016104d3565b60405161020e9190610d41565b60405180910390f35b61021f6104f9565b60405161022c9190610e6e565b60405180910390f35b61023d6104ff565b60405161024a9190610e6e565b60405180910390f35b61025b610505565b005b610265610596565b6040516102729190610e6e565b60405180910390f35b610283610648565b6040516102909190610e53565b60405180910390f35b6102a161075c565b6040516102ae9190610e6e565b60405180910390f35b6102bf6108a7565b6040516102cc9190610dbb565b60405180910390f35b6102dd6108cd565b6040516102ea9190610df1565b60405180910390f35b60008054906101000a900473ffffffffffffffffffffffffffffffffffffffff1681565b60076020528060005260406000206000915090505481565b60004260045411610341576000610344565b60015b905090565b60045481565b6000600160009054906101000a900473ffffffffffffffffffffffffffffffffffffffff1673ffffffffffffffffffffffffffffffffffffffff16634518f6b3836040518263ffffffff1660e01b81526004016103ac9190610df1565b60206040518083038186803b1580156103c457600080fd5b505afa1580156103d8573d6000803e3d6000fd5b505050506040513d601f19601f820116820180604052508101906103fc9190610b34565b9050919050565b600160009054906101000a900473ffffffffffffffffffffffffffffffffffffffff1681565b600660009054906101000a900473ffffffffffffffffffffffffffffffffffffffff1673ffffffffffffffffffffffffffffffffffffffff163373ffffffffffffffffffffffffffffffffffffffff16146104b9576040517f08c379a00000000000000000000000000000000000000000000000000000000081526004016104b090610e33565b60405180910390fd5b80600590805190602001906104cf92919061095b565b5050565b600660009054906101000a900473ffffffffffffffffffffffffffffffffffffffff1681565b60085481565b60035481565b60008054906101000a900473ffffffffffffffffffffffffffffffffffffffff1673ffffffffffffffffffffffffffffffffffffffff1663224b5c72336008546040518363ffffffff1660e01b8152600401610562929190610d5c565b600060405180830381600087803b15801561057c57600080fd5b505af1158015610590573d6000803e3d6000fd5b50505050565b600060085460008054906101000a900473ffffffffffffffffffffffffffffffffffffffff1673ffffffffffffffffffffffffffffffffffffffff166398d5fdca6040518163ffffffff1660e01b815260040160206040518083038186803b15801561060157600080fd5b505afa158015610615573d6000803e3d6000fd5b505050506040513d601f19601f820116820180604052508101906106399190610bc7565b6106439190610f06565b905090565b6106506109e1565b60008060009054906101000a900473ffffffffffffffffffffffffffffffffffffffff1673ffffffffffffffffffffffffffffffffffffffff16636eba2b13336040518263ffffffff1660e01b81526004016106ac9190610d41565b604080518083038186803b1580156106c357600080fd5b505afa1580156106d7573d6000803e3d6000fd5b505050506040513d601f19601f820116820180604052508101906106fb9190610b9e565b9050600760003373ffffffffffffffffffffffffffffffffffffffff1673ffffffffffffffffffffffffffffffffffffffff168152602001908152602001600020548160000181815161074e9190610f06565b915081815250508091505090565b600061076661032f565b156107a6576040517f08c379a000000000000000000000000000000000000000000000000000000000815260040161079d90610e13565b60405180910390fd5b60008054906101000a900473ffffffffffffffffffffffffffffffffffffffff1673ffffffffffffffffffffffffffffffffffffffff1663b10c784a336040518263ffffffff1660e01b81526004016107ff9190610d41565b600060405180830381600087803b15801561081957600080fd5b505af115801561082d573d6000803e3d6000fd5b50505050600854600760003373ffffffffffffffffffffffffffffffffffffffff1673ffffffffffffffffffffffffffffffffffffffff16815260200190815260200160002081905550600354610882610648565b602001516108909190610f06565b60048190555061089e610648565b60000151905090565b600260009054906101000a900473ffffffffffffffffffffffffffffffffffffffff1681565b600580546108da90611052565b80601f016020809104026020016040519081016040528092919081815260200182805461090690611052565b80156109535780601f1061092857610100808354040283529160200191610953565b820191906000526020600020905b81548152906001019060200180831161093657829003601f168201915b505050505081565b82805461096790611052565b90600052602060002090601f01602090048101928261098957600085556109d0565b82601f106109a257805160ff19168380011785556109d0565b828001600101855582156109d0579182015b828111156109cf5782518255916020019190600101906109b4565b5b5090506109dd91906109fb565b5090565b604051806040016040528060008152602001600081525090565b5b80821115610a145760008160009055506001016109fc565b5090565b6000610a2b610a2684610eba565b610e89565b905082815260208101848484011115610a4357600080fd5b610a4e848285611010565b509392505050565b600081359050610a6581611122565b92915050565b600081519050610a7a81611122565b92915050565b600082601f830112610a9157600080fd5b8135610aa1848260208601610a18565b91505092915050565b600060408284031215610abc57600080fd5b610ac66040610e89565b90506000610ad684828501610af6565b6000830152506020610aea84828501610af6565b60208301525092915050565b600081519050610b0581611139565b92915050565b600060208284031215610b1d57600080fd5b6000610b2b84828501610a56565b91505092915050565b600060208284031215610b4657600080fd5b6000610b5484828501610a6b565b91505092915050565b600060208284031215610b6f57600080fd5b600082013567ffffffffffffffff811115610b8957600080fd5b610b9584828501610a80565b91505092915050565b600060408284031215610bb057600080fd5b6000610bbe84828501610aaa565b91505092915050565b600060208284031215610bd957600080fd5b6000610be784828501610af6565b91505092915050565b610bf981610f5c565b82525050565b610c0881610f6e565b82525050565b610c1781610fa4565b82525050565b610c2681610fc8565b82525050565b610c3581610fec565b82525050565b6000610c4682610eea565b610c508185610ef5565b9350610c6081856020860161101f565b610c6981611111565b840191505092915050565b6000610c81600d83610ef5565b91507f50554d50204f43435550494544000000000000000000000000000000000000006000830152602082019050919050565b6000610cc1600b83610ef5565b91507f4e4f5420414c4c4f5745440000000000000000000000000000000000000000006000830152602082019050919050565b604082016000820151610d0a6000850182610d23565b506020820151610d1d6020850182610d23565b50505050565b610d2c81610f9a565b82525050565b610d3b81610f9a565b82525050565b6000602082019050610d566000830184610bf0565b92915050565b6000604082019050610d716000830185610bf0565b610d7e6020830184610d32565b9392505050565b6000602082019050610d9a6000830184610bff565b92915050565b6000602082019050610db56000830184610c0e565b92915050565b6000602082019050610dd06000830184610c1d565b92915050565b6000602082019050610deb6000830184610c2c565b92915050565b60006020820190508181036000830152610e0b8184610c3b565b905092915050565b60006020820190508181036000830152610e2c81610c74565b9050919050565b60006020820190508181036000830152610e4c81610cb4565b9050919050565b6000604082019050610e686000830184610cf4565b92915050565b6000602082019050610e836000830184610d32565b92915050565b6000604051905081810181811067ffffffffffffffff82111715610eb057610eaf6110e2565b5b8060405250919050565b600067ffffffffffffffff821115610ed557610ed46110e2565b5b601f19601f8301169050602081019050919050565b600081519050919050565b600082825260208201905092915050565b6000610f1182610f9a565b9150610f1c83610f9a565b9250827fffffffffffffffffffffffffffffffffffffffffffffffffffffffffffffffff03821115610f5157610f50611084565b5b828201905092915050565b6000610f6782610f7a565b9050919050565b60008115159050919050565b600073ffffffffffffffffffffffffffffffffffffffff82169050919050565b6000819050919050565b6000610faf82610fb6565b9050919050565b6000610fc182610f7a565b9050919050565b6000610fd382610fda565b9050919050565b6000610fe582610f7a565b9050919050565b6000610ff782610ffe565b9050919050565b600061100982610f7a565b9050919050565b82818337600083830152505050565b60005b8381101561103d578082015181840152602081019050611022565b8381111561104c576000848401525b50505050565b6000600282049050600182168061106a57607f821691505b6020821081141561107e5761107d6110b3565b5b50919050565b7f4e487b7100000000000000000000000000000000000000000000000000000000600052601160045260246000fd5b7f4e487b7100000000000000000000000000000000000000000000000000000000600052602260045260246000fd5b7f4e487b7100000000000000000000000000000000000000000000000000000000600052604160045260246000fd5b6000601f19601f8301169050919050565b61112b81610f5c565b811461113657600080fd5b50565b61114281610f9a565b811461114d57600080fd5b5056fea26469706673582212203fd13b5500d0d3a5e2029cb0fae2d8be4cda53a292726ec840527d03fe2d565664736f6c63430008000033",
  "immutableReferences": {},
  "source": "//SPDX-License-Identifier: MIT\r\npragma solidity >=0.4.22 <0.9.0;\r\n\r\nimport \"./PowerPlant.sol\";\r\nimport \"./CarRegister.sol\";\r\nimport \"./ERC20Accounting.sol\";\r\nimport \"./PowerPlant.sol\";\r\nimport \"./Libraries.sol\";\r\nimport \"./IPump.sol\";\r\n\r\ncontract Pump  is IPump{\r\n    PowerPlant public powerPlant;\r\n    CarRegister public carRegister;\r\n    ERC20Accounting public token;\r\n    //Interval of charging in seconds\r\n    uint public interval;\r\n    //Charging state\r\n    uint public chargingEnd;\r\n    //Current car UID\r\n    string public currentUID;\r\n    //Owner\r\n    address public owner;\r\n    //margin of charging\r\n    mapping(address=>uint) public margins;\r\n    //margin\r\n    uint public margin=1;\r\n\r\n    constructor(PowerPlant _powerPlant, CarRegister _carRegister, ERC20Accounting _token, uint _interval){\r\n        owner = msg.sender;\r\n        powerPlant = PowerPlant(_powerPlant);\r\n        carRegister = CarRegister(_carRegister);\r\n        token = _token;\r\n        interval = _interval;\r\n    }\r\n\r\n    function getPrice() override public view  returns (uint){\r\n        return powerPlant.getPrice()+margin;\r\n    }\r\n\r\n    function getCarAddress(string memory UID) public view returns (address){\r\n        return carRegister.getAccount(UID);\r\n    }\r\n\r\n    function placeOrder() override public returns (uint){\r\n        //Check if UID matches with parked car owner\r\n        //require(getCarAddress(currentUID) == msg.sender, \"CAR UID NOT MATCHED\");\r\n        //Check if station is occupied\r\n        require(!isOccupied(), \"PUMP OCCUPIED\");\r\n        //Place order\r\n        powerPlant.placeOrder(msg.sender);\r\n        margins[msg.sender]=margin;\r\n        //Set occupation of pump\r\n        chargingEnd=getOrder().startAt+interval;\r\n        return getOrder().cost;\r\n    }\r\n\r\n    function beginCharging() override public {\r\n        //Revert if pump is occupied\r\n        //require(!isOccupied(), \"PUMP OCCUPIED\");\r\n        //Trigger consumption power plant\r\n        powerPlant.consume(msg.sender, margin);\r\n    }\r\n\r\n    function setCurrentUID(string memory _uid) public {\r\n        require(msg.sender == owner, \"NOT ALLOWED\");\r\n        currentUID = _uid;\r\n    }\r\n\r\n    function isOccupied() override public view returns (bool){\r\n        return chargingEnd > block.timestamp ? true : false;\r\n    }\r\n\r\n    function getOrder() override public view returns (Accounting.Order memory){\r\n        Accounting.Order memory order=powerPlant.getOrder(msg.sender);\r\n        order.cost+=margins[msg.sender];\r\n        return order;\r\n    }\r\n\r\n}",
  "sourcePath": "C:\\Users\\filip\\iot-blockchain\\iot-summer-school\\smart-contract\\contracts\\Pump.sol",
  "compiler": {
    "name": "solc",
    "version": "0.8.0+commit.c7dfd78e.Emscripten.clang"
  },
  "schemaVersion": "3.4.3",
  "updatedAt": "2021-09-28T12:22:51.409Z",
  "networkType": "ethereum",
  "devdoc": {
    "kind": "dev",
    "methods": {},
    "version": 1
  },
  "userdoc": {
    "kind": "user",
    "methods": {},
    "version": 1
  }
}